:020000040800F2
:10000000080400204501000851030008CB02000845
:100010004D0300088D010008C50400080000000021
:100020000000000000000000000000007503000850
:10003000910100080000000053030008610400085B
:100040005F0100085F0100085F0100085F01000810
:100050005F0100085F0100085F0100085F01000800
:100060005F0100085F0100085F0100085F010008F0
:100070005F0100085F0100085F0100085F010008E0
:100080005F0100085F0100085F0100085F010008D0
:100090005F0100085F0100085F0100085F010008C0
:1000A0005F0100085F0100085F0100085F010008B0
:1000B0005F0100085F0100085F0100085F010008A0
:1000C0005F0100085F0100085F0100085F01000890
:1000D0005F0100085F0100085F0100085F01000880
:1000E0005F0100085F0100085F0100085F01000870
:1000F0005F0100085F0100085F0100085F01000860
:100100005F0100085F0100085F0100085F0100084F
:100110005F0100085F0100085F0100085F0100083F
:100120005F0100085F0100085F0100085F0100082F
:10013000DFF80CD000F018F800480047E904000888
:10014000080400200648804706480047FEE7FEE70F
:10015000FEE7FEE7FEE7FEE7FEE7FEE7FEE7FEE777
:100160006504000831010008064C074D06E0E06810
:1001700040F0010394E8070098471034AC42F6D3EE
:10018000FFF7DAFFA0050008C005000800BFFEE782
:10019000704700BF0100A0F10100FBD170472DE9BD
:1001A000F0410246002500260020002300240027FD
:1001B00091F803C00CF00F0591F803C00CF0100C7F
:1001C000BCF1000F03D091F802C04CEA050591F88C
:1001D00000C0BCF1000F31D0146800202BE04FF0BC
:1001E000010C0CFA00F3B1F800C00CEA03069E42C1
:1001F00020D183004FF00F0C0CFA03F7BC4305FA33
:1002000003FC4CEA040491F803C0BCF1280F06D1AA
:100210004FF0010C0CFA00FCC2F814C00AE091F88F
:1002200003C0BCF1480F05D14FF0010C0CFA00FCE3
:10023000C2F810C0401C0828D1D31460B1F800C027
:10024000BCF1FF0F34DD546800202EE000F1080CF3
:100250004FF0010808FA0CF3B1F800C00CEA0306ED
:100260009E4221D183004FF00F0C0CFA03F7BC43E0
:1002700005FA03FC4CEA040491F803C0BCF1280F12
:1002800005D100F1080C08FA0CF8C2F8148091F8B6
:1002900003C0BCF1480F07D100F1080C4FF0010872
:1002A00008FA0CF8C2F81080401C0828CED354601D
:1002B000BDE8F0810246002093680B400BB101209D
:1002C00000E0002070470161704700BFFEE708B5FD
:1002D0000121042000F03EF80120ADF800000320C9
:1002E0008DF8020004208DF8030008BD0EB5012131
:1002F000082000F02FF80120ADF8080003208DF849
:100300000A0010208DF80B002020ADF80400032017
:100310008DF8060010208DF807000220ADF80000CF
:1003200003208DF8020010208DF8030002A9064872
:10033000FFF735FF01A90448FFF731FF694602487E
:10034000FFF72DFF0EBD0000000C014000BFFEE7CF
:100350007047704729B1064A92690243044B9A617B
:1003600004E0034A92698243014B9A61704700009E
:1003700000100240704710B500F002F810BD0000F8
:100380000CB50020019000903348006840F48030A4
:100390003149086000BF3048006800F40030009028
:1003A0000198401C0190009818B90198B0F5A06F11
:1003B000F1D12948006800F4003010B1012000900C
:1003C00001E0002000900098012843D123480068F4
:1003D00040F01000214908600846006820F0030042
:1003E00008600846006840F0020008601A4840684B
:1003F000194948600846406848600846406840F42B
:10040000806048600846406820F47C1048600846D8
:10041000406840F4E81048600846006840F080708A
:10042000086000BF0C48006800F000700028F9D098
:100430000948406820F003000749486008464068C2
:1004400040F00200486000BF0348406800F00C0024
:100450000828F9D10CBD0000001002400020024025
:100460007047000010B51348006840F001001149C2
:10047000086008464068104908400E494860084630
:1004800000680E4908400B4908600846006820F4DF
:10049000802008600846406820F4FE0048604FF461
:1004A0001F008860FFF767FF4FF000600449086095
:1004B00010BD0000001002400000FFF8FFFFF6FE34
:1004C00008ED00E000BFFEE702E008C8121F08C107
:1004D000002AFAD170477047002001E001C1121FC5
:1004E000002AFBD170470000FFF700FFFFF7EFFE87
:1004F0004CE027490878C11700EB91718910A0EBF7
:100500008101234A117001212248FFF7D3FE0128FF
:1005100004D11F480078401C1D4908701C48007811
:1005200001280ED11C48006820F002001A4908601A
:100530001A48FFF72EFE022117480C38FFF7C3FEBA
:1005400024E01348007802280ED11348006820F0F8
:100550000100114908601148FFF71BFE01210E48F8
:100560000C38FFF7B0FE11E00948007803280DD1E0
:100570000948006820F02000074908600748FFF795
:1005800008FE202104480C38FFF79DFEB1E700006B
:1005900000000020000801400C0C0140FFFF0F008C
:1005A000C00500080000002004000000C804000886
:1005B000C40500080400002004040000D80400085A
:0405C0000000000037
:0400000508000131BD
:00000001FF
