:020000040800F2
:10000000200400204501000893060008370400087A
:100010008F0600088D010008F90A000800000000A2
:10002000000000000000000000000000AD07000814
:1000300091010008000000009506000899080008DA
:100040005F0100085F0100085F0100085F01000810
:100050005F0100085F0100085F0100085F01000800
:100060005F0100085F0100085F0100085F010008F0
:100070005F0100085F0100085F0100085F010008E0
:100080005F0100085F0100085F0100085F010008D0
:100090005F0100085F0100085F0100085F010008C0
:1000A0005F0100085F0100085F0100085F010008B0
:1000B0005F0100085F0100085F0100085F010008A0
:1000C0005F0100085F0100085F0100085F01000890
:1000D0005F0100085F0100085F0100085F01000880
:1000E0005F0100085F0100085F0100085F01000870
:1000F0005F0100085F0100085F0100085F01000860
:100100005F0100085F0100085F0100085F0100084F
:100110005F0100085F0100085F0100085F0100083F
:100120005F0100085F0100085F0100085F0100082F
:10013000DFF80CD000F018F8004800471D0B00084D
:10014000200400200648804706480047FEE7FEE7F7
:10015000FEE7FEE7FEE7FEE7FEE7FEE7FEE7FEE777
:100160009D08000831010008064C074D06E0E068D4
:1001700040F0010394E8070098471034AC42F6D3EE
:10018000FFF7DAFF900B0008B00B000800BFFEE796
:100190007047000070B506460D46144601212D48F3
:1001A00000F0BAF900BF2C492A4800F052F90028A3
:1001B000F9D00022A021274800F05EFA00BF2749AD
:1001C000244800F046F90028F9D03146214800F0D3
:1001D0005CFA00BF2149891E1E4800F03AF9002848
:1001E000F8D001211B4800F097F900BF1A491948BF
:1001F00000F02FF90028F9D00122A021154800F0C5
:100200003BFA00BF1449491C124800F022F90028AB
:10021000F8D014E0012C03D100210E4800F00DF9B4
:1002200000BF0D493F310B4800F013F90028F8D00A
:10023000084800F01DFA28706D1C601EC4B2002C26
:10024000E8D10121034800F073F90121014800F0D1
:10025000F4F870BD00540040010003008200070064
:1002600070B504460D460121194800F055F900BF4C
:100270001849174800F0EDF80028F9D00022A02115
:10028000134800F0F9F900BF1349114800F0E1F8F4
:100290000028F9D021460E4800F0F7F900BF0E49BA
:1002A000891E0B4800F0D5F80028F8D029460848E8
:1002B00000F0EBF900BF0849891C054800F0C9F8B7
:1002C0000028F8D00121024800F032F970BD00008A
:1002D00000540040010003008200070010B500BF79
:1002E00001210D4800F018F900BF0C490A4800F040
:1002F0002BF90028F9D00022A021074800F0BCF912
:100300000649491C044800F01FF90028E8D00121E3
:10031000014800F00DF910BD00540040010000102C
:100320002DE9F0410246002500260020002300248C
:10033000002791F803C00CF00F0591F803C00CF0F2
:10034000100CBCF1000F03D091F802C04CEA050577
:1003500091F800C0BCF1000F31D0146800202BE0F0
:100360004FF0010C0CFA00F3B1F800C00CEA0306E0
:100370009E4220D183004FF00F0C0CFA03F7BC43D0
:1003800005FA03FC4CEA040491F803C0BCF1280F01
:1003900006D14FF0010C0CFA00FCC2F814C00AE0C0
:1003A00091F803C0BCF1480F05D14FF0010C0CFAD5
:1003B00000FCC2F810C0401C0828D1D31460B1F86A
:1003C00000C0BCF1FF0F34DD546800202EE000F1C6
:1003D000080C4FF0010808FA0CF3B1F800C00CEA61
:1003E00003069E4221D183004FF00F0C0CFA03F755
:1003F000BC4305FA03FC4CEA040491F803C0BCF1C9
:10040000280F05D100F1080C08FA0CF8C2F8148086
:1004100091F803C0BCF1480F07D100F1080C4FF070
:10042000010808FA0CF8C2F81080401C0828CED346
:100430005460BDE8F08100BFFEE721B1028842F4BC
:100440008062028004E002884FF6FF331A40028087
:10045000704770B502460024002500230020958ACD
:10046000138B1B0445EA030626F07F4404EA0106C9
:100470008E4201D1012000E0002070BD21B1028830
:1004800042F00102028004E002884FF6FE731A4037
:100490000280704700B585B00121082000F00CF9FA
:1004A0000121480500F0F8F81C208DF813004020C9
:1004B000ADF8100003208DF8120004A91348FFF7CF
:1004C0002FFF8020ADF8100004A91048FFF728FF87
:1004D0004FF48060ADF80A000001ADF80C000C4844
:1004E00000904BF6FF70ADF806000020ADF8040058
:1004F0005F20ADF808006946064800F043F8012186
:100500000448FFF7BBFF05B000BD0000000C014030
:10051000801A06000054004021B1028842F4807223
:10052000028004E002884FF6FF631A4002807047A1
:1005300021B1028842F40072028004E002884FF682
:10054000FF531A40028070470CB50246002000237A
:100550000193009300920B0F019321F07F41019BC7
:100560001BB1009B1433009303E0090C009B18336C
:100570000093009B1B680B400BB1012000E00020A2
:100580000CBD00002DE9F04385B004460D46002661
:10059000B1460427DFF8CC80A6884FF6C07006402D
:1005A000684600F099F8DDF808802F48B8FBF0F0B5
:1005B0001FFA80F946EA0906A68020884FF6FE71E8
:1005C0000840208000262949286888420CD82868DD
:1005D0004000B8FBF0F087B2042F00DA04273E4356
:1005E00009F10100208427E0E8884BF6FF7188427A
:1005F00006D1286800EB4000B8FBF0F087B209E0B4
:10060000286800EBC00101EB0010B8FBF0F087B2E6
:1006100047F48047C7F30B0008B947F0010747F4D8
:10062000004006434FF4967009FB00F04FF47A71D6
:1006300090FBF1F0401C2084A683208840F001004C
:10064000208026884FF6F5300640A888698908433F
:1006500006432680A88929890843208105B0BDE882
:10066000F083000000127A0040420F00A0860100D3
:100670000146088AC0B2704712B141F0010102E0A0
:100680004FF6FE731940018270470182704700BF28
:10069000FEE770477047000029B1064A126902431D
:1006A000044B1A6104E0034A12698243014B1A6148
:1006B000704700000010024029B1064A92690243C7
:1006C000044B9A6104E0034A92698243014B9A61A8
:1006D000704700000010024030B5002100220024C5
:1006E00000232D4D6D6805F00C0121B1042905D0C2
:1006F000082923D105E0294D056022E0274D05603A
:100700001FE0254D6D6805F47012234D6D6805F4EA
:100710008034022505EB92421CB9214D55430560FA
:100720000BE01D4D6D6805F400351DB11C4D5543A2
:10073000056002E0194D5543056002E0174D056064
:1007400000BF00BF144D6D6805F0F0010909154D9B
:100750006B5C0568DD4045600F4D6D6805F4E06138
:10076000090A104D6B5C4568DD4085600A4D6D6877
:1007700005F46051C90A0B4D6B5C4568DD40C560EE
:10078000054D6D6805F44041890B074D6B5CC568EC
:10079000B5FBF3F5056130BD0010024000127A0090
:1007A00000093D000000002010000020704710B537
:1007B00000F002F810BD00000CB500200190009080
:1007C0003348006840F480303149086000BF304849
:1007D000006800F4003000900198401C01900098DF
:1007E00018B90198B0F5A06FF1D12948006800F45C
:1007F000003010B10120009001E00020009000982E
:10080000012843D12348006840F0100021490860C6
:100810000846006820F0030008600846006840F0C1
:10082000020008601A484068194948600846406854
:1008300048600846406840F4806048600846406868
:1008400020F47C1048600846406840F4E810486096
:100850000846006840F08070086000BF0C480068DF
:1008600000F000700028F9D00948406820F003002B
:10087000074948600846406840F00200486000BFF1
:100880000348406800F00C000828F9D10CBD0000B6
:1008900000100240002002407047000010B51348CD
:1008A000006840F00100114908600846406810499E
:1008B00008400E494860084600680E4908400B4948
:1008C00008600846006820F48020086008464068F8
:1008D00020F4FE0048604FF41F008860FFF767FFB8
:1008E0004FF000600449086010BD00000010024095
:1008F0000000FFF8FFFFF6FE08ED00E001F40072D3
:10090000B2F5007F00D100BFCA430280704721B119
:10091000828942F40052828104E082894DF6FF739D
:100920001A4082817047000000B585B00121042083
:10093000FFF7C2FE01218803FFF7BEFE18208DF8E5
:1009400013004FF40070ADF8100003208DF8120072
:1009500004A91348FFF7E4FC04208DF813000002FB
:10096000ADF8100004A90E48FFF7DAFC4FF4E130AF
:1009700000900020ADF80C000C20ADF80A0000201B
:10098000ADF80800ADF80600ADF80400694605486A
:1009900000F018F801210348FFF7B9FF05B000BDCA
:1009A000000801400038014002460020B1F5007FF8
:1009B00000D100BF13880B400BB1012000E00020E4
:1009C000704700002DE9F04786B005460E4600242A
:1009D000A24600BFA1460027B08900B100BF2F4644
:1009E0002C8A4CF6FF700440F08804432C82AC89BA
:1009F0004EF6F3100440B0883189084371890843EA
:100A00000443AC81AC8A4FF6FF400440B0890443F4
:100A1000AC8201A8FFF760FE1F48874202D1DDF8D3
:100A200010A001E0DDF80CA0A88900F4004040B15E
:100A30000AEBCA0000EB0A1031684900B0FBF1F87C
:100A400007E00AEBCA0000EB0A1031688900B0FB2E
:100A5000F1F86420B8FBF0F004012009642101FBE7
:100A60001089A88900F4004040B1322000EBC90091
:100A7000B0FBF1F000F00700044308E0322000EB87
:100A800009106421B0FBF1F000F00F0004432C8149
:100A900006B0BDE8F08700000038014070B504469C
:100AA0000D462946204600F008F800BF40212046A8
:100AB000FFF77AFF0028F9D070BDC1F308028280E9
:100AC0007047000070B505460C4640210948FFF705
:100AD00015FF0BE014F8011B2846FFF7EEFF00BFDF
:100AE00040212846FFF760FF0028F9D02078002831
:100AF000F0D170BD0038014000BFFEE702E008C839
:100B0000121F08C1002AFAD170477047002001E087
:100B100001C1121F002AFBD17047000010B5FFF77A
:100B2000B9FCFFF701FF0DA11148FFF7CBFF25210D
:100B30000120FFF795FBFFF7D1FB01220D4910467D
:100B4000FFF728FB0B4801780948FFF7A7FF0AA128
:100B50000748FFF7B7FF002010BD0000493243B23D
:100B6000E2CAD4B3CCD0F2A3A1A3A10A0000000032
:100B70000038014014000020493243B2E2CAD4B325
:100B8000CCD0F2BDE1CAF8A3A1A3A10A00000000E5
:100B9000B00B00080000002020000000FC0A000844
:100BA000D00B000820000020000400000C0B0008FF
:100BB0000000000001020304010203040607080903
:100BC000020406080A000000000000000000000007
:0400000508000131BD
:00000001FF
