:020000040800F2
:100000001804002045010008590500080D050008E6
:1000100055050008F90100089D09000800000000CE
:100020000000000000000000000000005106000871
:10003000FD010008000000005B0500083D07000806
:100040005F0100085F0100085F0100085F01000810
:100050005F0100085F0100085F0100085F01000800
:100060005F0100085F0100085F0100085F010008F0
:100070005F0100085F0100085F0100085F010008E0
:100080005F0100085F0100085F0100085F010008D0
:100090005F0100085F0100085F0100085F010008C0
:1000A0005F0100085F0100085F0100085F010008B0
:1000B0005F0100085F0100085F0100085F010008A0
:1000C0005F0100085F0100085F0100085F01000890
:1000D0005F0100085F0100085F0100085F01000880
:1000E0005F0100085F0100085F0100085F01000870
:1000F0005F0100085F0100085F0100085F01000860
:100100005F0100085F0100085F0100085F0100084F
:100110005F0100085F0100085F0100085F0100083F
:100120005F0100085F0100085F0100085F0100082F
:10013000DFF80CD000F018F800480047C1090008AB
:10014000180400200648804706480047FEE7FEE7FF
:10015000FEE7FEE7FEE7FEE7FEE7FEE7FEE7FEE777
:100160004107000831010008064C074D06E0E06831
:1001700040F0010394E8070098471034AC42F6D3EE
:10018000FFF7DAFF640A0008840A000870B5044625
:10019000002500F0DBF8A02000F0A8F800F086F8B9
:1001A000204600F0A3F800F081F800F0CFF8A1207D
:1001B00000F09CF800F07AF800F050F8054600F0E6
:1001C000F7F800F0DFF8284670BD70B505460C461C
:1001D00000F0BCF8A02000F089F800F067F828468D
:1001E00000F084F800F062F8204600F07FF800F09C
:1001F0005DF800F0C7F870BD00BFFEE7704700BFB4
:100200000100A0F10100FBD1704770B50446012543
:1002100000F00CF800F09AF8204600F067F800F0C3
:1002200045F8054600F0AEF8284670BD08B5012136
:10023000082000F093F914208DF80300C020ADF8D9
:10024000000003208DF802006946034800F0C6F85C
:1002500000F098F808BD0000000C014070B50025C2
:1002600000248021104800F04FF900F051F900BF40
:1002700016E040210C4800F047F900F049F98021D0
:10028000094800F036F9012802D1802020410543B9
:100290004021054800F036F900F03AF9601CC4B27C
:1002A000082CE6DB284670BD000C014010B580210B
:1002B0000D4800F029F900F02BF940210A4800F020
:1002C00023F900F025F98021074800F012F908B160
:1002D000012400E000244021034800F013F900F05D
:1002E00017F9204610BD0000000C014070B505460E
:1002F000002400BF1CE080202041284030B1802134
:10030000114800F001F900F003F905E080210E48E2
:1003100000F0F8F800F0FCF840210B4800F0F4F889
:1003200000F0F6F84021084800F0ECF8601CC4B278
:10033000082CE0DB072C05D18021034800F0E4F80D
:1003400000F0E6F870BD0000000C014010B58021FF
:100350000B4800F0D9F800F0DBF84021084800F025
:10036000D3F800F0D5F88021054800F0CBF800F074
:10037000CFF84021024800F0C5F800F0C9F810BDE0
:10038000000C014010B58021084800F0BBF800F0D7
:10039000BFF84021054800F0B7F800F0B9F8802117
:1003A000024800F0B1F800F0B3F810BD000C0140B5
:1003B00010B58021084800F0A7F800F0A9F8402106
:1003C000054800F0A1F800F0A3F84021024800F031
:1003D00099F800F09DF810BD000C01402DE9F041A6
:1003E000024600250026002000230024002791F863
:1003F00003C00CF00F0591F803C00CF0100CBCF119
:10040000000F03D091F802C04CEA050591F800C036
:10041000BCF1000F31D0146800202BE04FF0010C2C
:100420000CFA00F3B1F800C00CEA03069E4220D19A
:1004300083004FF00F0C0CFA03F7BC4305FA03FCE2
:100440004CEA040491F803C0BCF1280F06D14FF028
:10045000010C0CFA00FCC2F814C00AE091F803C0C9
:10046000BCF1480F05D14FF0010C0CFA00FCC2F8AA
:1004700010C0401C0828D1D31460B1F800C0BCF1F2
:10048000FF0F34DD546800202EE000F1080C4FF01F
:10049000010808FA0CF3B1F800C00CEA03069E420A
:1004A00021D183004FF00F0C0CFA03F7BC4305FA7F
:1004B00003FC4CEA040491F803C0BCF1280F05D1F9
:1004C00000F1080C08FA0CF8C2F8148091F803C087
:1004D000BCF1480F07D100F1080C4FF0010808FAF1
:1004E0000CF8C2F81080401C0828CED35460BDE838
:1004F000F0810246002093680B400BB1012000E020
:1005000000207047416170470161704700BFFEE7FE
:10051000002001E0411CC8B20A28FBDB7047000044
:1005200008B50121082000F019F80220ADF80000FC
:1005300010208DF8030003208DF80200694604485E
:10054000FFF74CFF02210248FFF7DEFF08BD000065
:10055000000C014000BFFEE77047704729B1064A12
:1005600092690243044B9A6104E0034A9269824310
:10057000014B9A61704700000010024030B5002125
:100580000022002400232D4D6D6805F00C0121B1DF
:10059000042905D0082923D105E0294D056022E072
:1005A000274D05601FE0254D6D6805F47012234D41
:1005B0006D6805F48034022505EB92421CB9214D8B
:1005C000554305600BE01D4D6D6805F400351DB108
:1005D0001C4D5543056002E0194D5543056002E08E
:1005E000174D056000BF00BF144D6D6805F0F001A8
:1005F0000909154D6B5C0568DD4045600F4D6D6860
:1006000005F4E061090A104D6B5C4568DD408560CA
:100610000A4D6D6805F46051C90A0B4D6B5C456865
:10062000DD40C560054D6D6805F44041890B074DFF
:100630006B5CC568B5FBF3F5056130BD0010024089
:1006400000127A0000093D00000000201000002088
:10065000704710B500F002F810BD00000CB5002086
:10066000019000903348006840F4803031490860C0
:1006700000BF3048006800F4003000900198401C32
:100680000190009818B90198B0F5A06FF1D12948F0
:10069000006800F4003010B10120009001E000205B
:1006A00000900098012843D12348006840F01000D2
:1006B000214908600846006820F0030008600846E9
:1006C000006840F0020008601A4840681949486014
:1006D0000846406848600846406840F480604860CA
:1006E0000846406820F47C1048600846406840F4A2
:1006F000E81048600846006840F08070086000BF5D
:100700000C48006800F000700028F9D009484068E3
:1007100020F00300074948600846406840F00200A6
:10072000486000BF0348406800F00C000828F9D179
:100730000CBD000000100240002002407047000085
:1007400010B51348006840F00100114908600846E0
:100750004068104908400E494860084600680E4944
:1007600008400B4908600846006820F480200860B3
:100770000846406820F4FE0048604FF41F0088607F
:10078000FFF767FF4FF000600449086010BD0000EC
:10079000001002400000FFF8FFFFF6FE08ED00E049
:1007A00001F40072B2F5007F00D100BFCA4302809D
:1007B000704721B1828942F40052828104E082892B
:1007C0004DF6FF731A4082817047000000B585B076
:1007D00001210420FFF7C2FE01218803FFF7BEFEBE
:1007E00018208DF813004FF40070ADF810000320AE
:1007F0008DF8120004A91348FFF7F0FD04208DF8CE
:1008000013000002ADF8100004A90E48FFF7E6FD42
:100810004FF4E13000900020ADF80C000C20ADF852
:100820000A000020ADF80800ADF80600ADF804009D
:100830006946054800F018F801210348FFF7B9FFA1
:1008400005B000BD0008014000380140024600200C
:10085000B1F5007F00D100BF13880B400BB1012020
:1008600000E00020704700002DE9F04786B0054603
:100870000E460024A24600BFA1460027B08900B161
:1008800000BF2F462C8A4CF6FF700440F0880443CA
:100890002C82AC894EF6F3100440B08831890843AD
:1008A000718908430443AC81AC8A4FF6FF40044091
:1008B000B0890443AC8201A8FFF760FE1F4887425D
:1008C00002D1DDF810A001E0DDF80CA0A88900F449
:1008D000004040B10AEBCA0000EB0A103168490041
:1008E000B0FBF1F807E00AEBCA0000EB0A10316830
:1008F0008900B0FBF1F86420B8FBF0F00401200996
:10090000642101FB1089A88900F4004040B1322025
:1009100000EBC900B0FBF1F000F00700044308E071
:10092000322000EB09106421B0FBF1F000F00F0061
:1009300004432C8106B0BDE8F08700000038014078
:1009400070B504460D462946204600F008F800BF61
:1009500040212046FFF77AFF0028F9D070BDC1F38F
:10096000080282807047000070B505460C464021A1
:100970000948FFF715FF0BE014F8011B2846FFF7A5
:10098000EEFF00BF40212846FFF760FF0028F9D0A6
:1009900020780028F0D170BD0038014000BFFEE78C
:1009A00002E008C8121F08C1002AFAD17047704738
:1009B000002001E001C1121F002AFBD17047000096
:1009C00010B5FFF7ADFDFFF701FF15A11B48FFF7BD
:1009D000CBFFA020FFF719FC20B902211848FFF730
:1009E00091FD03E002211648FFF78EFD4D211420F2
:1009F000FFF7EBFB1348FFF702FC1420FFF7C6FBE1
:100A0000044621460D48FFF79BFF0FA10B48FFF757
:100A1000ABFF0EA10948FFF7A7FF002010BD0000A3
:100A2000D5E2CAC7D2BBB8F6C8EDBCFEC4A3C4E2C7
:100A3000493243B2E2CAD4A3A10A000000380140FF
:100A4000000C0140FFFF0F000A000000C8EDBCFED3
:100A5000C4A3C4E2493243B2E2CAD4BDE1CAF8A396
:100A6000A10A0000840A0008000000201400000011
:100A7000A0090008980A00081400002004040000DF
:100A8000B009000800000000010203040102030491
:080A900006070809020406082C
:0400000508000131BD
:00000001FF
