:020000040800F2
:100000001804002045010008850300087D0300084E
:10001000810300088D0100085F090008000000004E
:10002000000000000000000000000000250500089E
:1000300065020008000000000D0400081106000819
:100040005F0100085F0100085F0100085F01000810
:100050005F0100085F0100085F0100085F01000800
:100060005F0100085F0100085F0100085F010008F0
:100070005F0100085F0100085F0100085F010008E0
:100080005F0100085F0100085F0100085F010008D0
:100090005F0100085F0100085F0100085F010008C0
:1000A0005F0100085F0100085F0100085F010008B0
:1000B0005F0100085F0100085F0100085F010008A0
:1000C0005F0100085F0100085F0100085F01000890
:1000D0005F0100080D0700085F0100085F010008CC
:1000E0005F0100085F0100085F0100085F01000870
:1000F0005F0100085F0100085F0100085F01000860
:100100005F0100085F0100085F0100085F0100084F
:100110005F0100085F0100085F0100085F0100083F
:100120005F0100085F0100085F0100085F0100082F
:10013000DFF80CD000F018F80048004781090008EB
:10014000180400200648804706480047FEE7FEE7FF
:10015000FEE7FEE7FEE7FEE7FEE7FEE7FEE7FEE777
:100160001506000831010008064C074D06E0E0685E
:1001700040F0010394E8070098471034AC42F6D3EE
:10018000FFF7DAFFB0090008D009000800BFFEE75A
:1001900000F0805111B10349086001E00249486054
:1001A00070470000040402400000024021B10268D0
:1001B00042F00102026004E002684FF6FE731A404A
:1001C0000260704710B50022026847F6F0739A4348
:1001D0000C6A8B6823430C6923434C6923438C6965
:1001E0002343CC6923434C6A23438C6A23431A4339
:1001F0000260CB6843600B6883604B68C36010BDCE
:1002000000B58BB00121084600F002F912480090B9
:1002100012480190102002900520039000200490C5
:1002200080200590800006908000079000200890B4
:100230004FF40050099000200A9069460848FFF7E3
:10024000C1FF4FF40040FFF7A3FF01210448FFF76F
:10025000ADFF0BB000BD0000043801409C09000850
:100260004400024070472DE9F04102460025002677
:10027000002000230024002791F803C00CF00F0594
:1002800091F803C00CF0100CBCF1000F03D091F8F2
:1002900002C04CEA050591F800C0BCF1000F31D056
:1002A000146800202BE04FF0010C0CFA00F3B1F8B9
:1002B00000C00CEA03069E4220D183004FF00F0CD1
:1002C0000CFA03F7BC4305FA03FC4CEA040491F86A
:1002D00003C0BCF1280F06D14FF0010C0CFA00FC52
:1002E000C2F814C00AE091F803C0BCF1480F05D170
:1002F0004FF0010C0CFA00FCC2F810C0401C08289A
:10030000D1D31460B1F800C0BCF1FF0F34DD5468E4
:1003100000202EE000F1080C4FF0010808FA0CF361
:10032000B1F800C00CEA03069E4221D183004FF0D1
:100330000F0C0CFA03F7BC4305FA03FC4CEA040467
:1003400091F803C0BCF1280F05D100F1080C08FAA0
:100350000CF8C2F8148091F803C0BCF1480F07D123
:1003600000F1080C4FF0010808FA0CF8C2F81080F0
:10037000401C0828CED35460BDE8F08100BFFEE7E2
:1003800000BFFEE77047000070B5002100230F2278
:10039000C47804B3154C246804F4E064C4F5E06444
:1003A000210AC1F10403CA40447804FA03F18478B5
:1003B0001440214309010E4C0678A155047804F03D
:1003C0001F050124AC4005786D11AD0005F1E02555
:1003D000C5F8004109E0047804F01F050124AC4091
:1003E000044D0678761145F8264070BD0CED00E00E
:1003F00000E400E080E100E002490143024A1160AC
:10040000704700000000FA050CED00E070470000A6
:1004100029B1064A52690243044B5A6104E0034A77
:1004200052698243014B5A6170470000001002403C
:1004300029B1064A92690243044B9A6104E0034AD7
:1004400092698243014B9A6170470000001002409C
:1004500030B500210022002400232D4D6D6805F0E9
:100460000C0121B1042905D0082923D105E0294D2B
:10047000056022E0274D05601FE0254D6D6805F4FD
:100480007012234D6D6805F48034022505EB92420D
:100490001CB9214D554305600BE01D4D6D6805F4F9
:1004A00000351DB11C4D5543056002E0194D554303
:1004B000056002E0174D056000BF00BF144D6D6878
:1004C00005F0F0010909154D6B5C0568DD404560DC
:1004D0000F4D6D6805F4E061090A104D6B5C4568CD
:1004E000DD4085600A4D6D6805F46051C90A0B4D09
:1004F0006B5C4568DD40C560054D6D6805F44041A5
:10050000890B074D6B5CC568B5FBF3F5056130BD24
:100510000010024000127A0000093D000000002097
:1005200010000020704710B500F002F810BD000068
:100530000CB50020019000903348006840F48030F2
:100540003149086000BF3048006800F40030009076
:100550000198401C0190009818B90198B0F5A06F5F
:10056000F1D12948006800F4003010B1012000905A
:1005700001E0002000900098012843D12348006842
:1005800040F01000214908600846006820F0030090
:1005900008600846006840F0020008601A48406899
:1005A000194948600846406848600846406840F479
:1005B000806048600846406820F47C104860084627
:1005C000406840F4E81048600846006840F08070D9
:1005D000086000BF0C48006800F000700028F9D0E7
:1005E0000948406820F00300074948600846406811
:1005F00040F00200486000BF0348406800F00C0073
:100600000828F9D10CBD0000001002400020024073
:100610007047000010B51348006840F00100114910
:10062000086008464068104908400E49486008467E
:1006300000680E4908400B4908600846006820F42D
:10064000802008600846406820F4FE0048604FF4AF
:100650001F008860FFF767FF4FF0006004490860E3
:1006600010BD0000001002400000FFF8FFFFF6FE82
:1006700008ED00E000B585B001210420FFF7D8FEA9
:1006800001218803FFF7D4FE00F056F818208DF8FA
:1006900013004FF40070ADF8100003208DF8120025
:1006A00004A91848FFF7DFFD04208DF813000002AD
:1006B000ADF8100003208DF8120004A91148FFF7CF
:1006C000D2FD4FF4E13000900020ADF80400ADF809
:1006D0000600ADF808000C20ADF80A000020ADF8C7
:1006E0000C006946084800F0C5F80121064800F0F2
:1006F00050F8012240F22551034800F096F805B069
:1007000000BD0000000801400038014010B540F273
:100710002551084800F05FF801280AD1054800F08B
:1007200015F9C4B2204600F01BF82021014800F062
:1007300027F810BD0038014008B54FF4A060FFF75E
:100740005BFE25208DF8000001208DF801008DF85A
:1007500002008DF803006846FFF716FE08BD000092
:1007600010B504462146054800F0F5F800BF802189
:10077000024800F023F80028F9D010BD00380140ED
:1007800001F40072B2F5007F00D100BFCA430280BD
:10079000704721B1828942F40052828104E082894B
:1007A0004DF6FF731A40828170471AB1838A0B435A
:1007B000838202E0838A8B43838270470246002053
:1007C000B1F5007F00D100BF13880B400BB10120B1
:1007D00000E00020704770B5024600240023002589
:1007E000002040F66A16B14200D100BFC1F34215A5
:1007F00001F01F03012606FA03F3012D02D19689A9
:10080000334006E0022D02D1168A334001E0968A79
:1008100033400C12012606FA04F41688344013B152
:100820000CB1012000E0002070BDF0B503460024AB
:1008300000260025002040F66A17B94200D100BF0B
:100840001846C1F3421401F01F06012707FA06F506
:10085000012C01D10C3004E0022C01D1103000E059
:1008600014301AB107682F43076002E00768AF43EE
:100870000760F0BD2DE9F04786B005460E4600241E
:10088000A24600BFA1460027B08900B100BF2F4695
:100890002C8A4CF6FF700440F08804432C82AC890B
:1008A0004EF6F3100440B08831890843718908433B
:1008B0000443AC81AC8A4FF6FF400440B089044346
:1008C000AC8201A8FFF7C4FD1F48874202D1DDF8C2
:1008D00010A001E0DDF80CA0A88900F4004040B1B0
:1008E0000AEBCA0000EB0A1031684900B0FBF1F8CE
:1008F00007E00AEBCA0000EB0A1031688900B0FB80
:10090000F1F86420B8FBF0F004012009642101FB38
:100910001089A88900F4004040B1322000EBC900E2
:10092000B0FBF1F000F00700044308E0322000EBD8
:1009300009106421B0FBF1F000F00F0004432C819A
:1009400006B0BDE8F0870000003801400146888805
:10095000C0F308007047C1F308028280704700BFEF
:10096000FEE702E008C8121F08C1002AFAD170474A
:100970007047002001E001C1121F002AFBD170471F
:10098000FFF778FEFFF73CFC012240210248FFF709
:100990000CFF00BFFEE7000000380140785634121B
:1009A00089674523333333334444444455555555BF
:1009B000D0090008000000201400000062090008AF
:1009C000E409000814000020040400007209000873
:1009D00000000000010203040102030406070809E5
:0409E00002040608FF
:0400000508000131BD
:00000001FF
